:020000040800F2
:20000000B806002031020008891200088112000885120008250600089D13000800000000FF
:200020000000000000000000000000009112000829060008000000008D1200089512000888
:200040004B0200084B0200084B0200084B0200084B0200084B0200084B0200084B020008F8
:200060004B0200084B0200084B0200084B0200084B0200084B0200084B0200084B020008D8
:200080004B0200084B0200084B0200084B0200084B0200084B0200084B0200084B020008B8
:2000A0004B0200084B0200084B0200084B0200084B0200084B0200084B0200084B02000898
:2000C0004B0200084B0200084B0200084B0200084B0200084B0200084B0200084B02000878
:2000E0004B0200084B0200084B0200084B0200084B0200084B0200084B0200084B02000858
:200100004B0200084B0200084B0200084B0200084B0200084B0200084B0200084B02000837
:200120004B0200084B0200084B0200084B0200084B0200084B0200084B0200084B02000817
:200140004B0200084B0200084B0200084B0200084B0200084B0200084B0200084B020008F7
:200160004B0200084B0200084B0200084B0200084B0200084B0200084B020008000000002C
:200180004B0200084B02000800F002F800F041F80AA090E8000C82448344AAF10107DA4525
:2001A00001D100F036F8AFF2090EBAE80F0013F0010F18BFFB1A43F001031847B01300008E
:2001C000D0130000103A24BF78C878C1FAD8520724BF30C830C144BF04680C60704700000D
:2001E0000023002400250026103A28BF78C1FBD8520728BF30C148BF0B607047642900F059
:20020000F980002070471FB501F096F91FBD10B510BD00F0CCF91146FFF7F5FF01F0C0F82D
:2002200000F0EAF903B4FFF7F2FF03BC00F0F2F90948804709480047FEE7FEE7FEE7FEE76F
:20024000FEE7FEE7FEE7FEE7FEE7FEE704480549054A064B7047000099120008890100080A
:20026000B8000020B8060020B8020020B802002053EA020C00F069802DE9F04B4FF000065A
:20028000002B1FBFB3FA83F503FA05F424FA05F65E4012BF1643B2FA82F502FA05F4C5F18B
:2002A00020051EBF22FA05FC44EA0C04203556EA044C4FEA144418BF641C4FF000084FF08E
:2002C0000009904271EB030C39D3002919BFB1FA81F701FA07F6B0FA80F700FA07F6C7F1E0
:2002E00020071EBF20FA07FC46EA0C062037B6FBF4FCA7EB0507103F07F01F0BCBF12006B3
:200300002CFA06F60CFA0BFB44BFB3460026202FA4BF5E464FF0000B5BEA060C08BF4FF090
:20032000010B19EB0B0948EB0608ABFB027C06FB02CC0BFB03CCC01B71EB0C01C1E70B4653
:20034000024641464846BDE8F08B13B5084318BF4FF0FF300146AFF30080BDE81C407047A7
:200360000FB41CB5084B06AA7B4469460090059800F005F904460020694600F013F92046E2
:200380001CBC5DF814FB0000390200002DE9F0410E460446002020622046E168884730B3FE
:2003A000252805D0D4E901219047206A401CF2E7E168204600278847050018D0A5F141003D
:2003C000192802D820354FF400673246294620462760FFF713FF40B1012804D0F61D26F010
:2003E00007060836D8E7361DD6E72846DAE7206ABDE8F0812DE9F041064600241068752947
:20040000314616A510D0AFF30080002802DA404213A507E031688A0701D512A502E049079A
:2004200004D511A5012401E0AFF3008000210A2206F1240709E0B0FBF2FCB0FBF2F302FB87
:200440001C00303078541846491C0028F3D123462A463046BDE8F04100F032B800000000A6
:200460002D0000002B000000200000004FF0000200B5134694469646203922BFA0E80C50E1
:20048000A0E80C50B1F12001BFF4F7AF090728BFA0E80C5048BF0CC05DF804EB890028BFFA
:2004A00040F8042B08BF704748BF20F8022B11F0804F18BF00F8012B704770477047704764
:2004C0002DE9F0470D4699469246044600F124080168880604D5E06921F01001216000E0C2
:2004E0000120A84201DD471B00E00027A1697A1902EB0900081AA0612078C00602D420465A
:20050000AFF30080002608E0D4E901211AF806009047206A401C761C20624E45F4DB2078E9
:20052000C0060AD52046AFF3008006E0D4E9012130209047206A401C2062381EA7F1010744
:20054000F4DC07E0D4E9012118F805009047206A401C2062281EA5F10105F3DC2046AFF3F8
:2005600000802078000602D50220BDE8F0870120FBE7000001694A1C02610878704700B526
:200580008FB0CDE901310021059105497944CDE9031011466846FFF7F9FE0FB000BD00003B
:2005A000E5FFFFFF0A6802F8010B0A607047754600F02CF8AE4605006946534620F0070099
:2005C000854618B020B5FFF741FEBDE820404FF000064FF000074FF000084FF0000BAC466B
:2005E000ACE8C009ACE8C009ACE8C009ACE8C00921F007018D46704710B50446AFF30080B3
:200600002046BDE81040FFF70DBE0000004870471000002001491820ABBEFEE72600020097
:2006200070470000FEE7000070470000B0B5044600F0F2F8054640F20000C2F20000007835
:20064000611C18BF044400BF00F0E6F8401BA042FAD3B0BD2DE9F04F82B000F13E4241F6CB
:20066000004502F1FF77C4F20205082243F6004E4FEAB726A84208BF0722C4F2010E072E74
:2006800038BF4FEAB7220125002600274FF00008009208E008F101080437B8F1100F06F121
:2006A000020600F0A7800C6805FA08F914EA090FF0D0D1F804B003220BF0030CACF1010483
:2006C000B240012C6FEA020A10D88268CC6802EA0A02B440224382604268CBF3001422EAD5
:2006E000090204FA08F42243426005E0BCF1030F02D14FF0030C20E0C2688C6802EA0A0213
:20070000B4402243BCF1020FC26016D16FF0030202EA58020244D2F820C007F01C050F23D5
:200720000C69AB402CEA030304FA05F52B431362D1F804B001250BF0030C02680CFA06F34C
:2007400002EA0A021A431BF4403F0260A2D0002243F644030192C4F202031A684FF6084CD7
:2007600042F480421A601A68CFF6FF7C02F480420192019A28F00302724452F80C3007F00F
:200780000C050F24AC40A343009C04FA05F52B4342F80C30DEF808204B6842EA090543F6A7
:2007A0000C4CDC0258BF22EA0905CEF80850C4F2010CDCF800209C0242EA090558BF22EA02
:2007C0000905CCF80050DEF804209C0342EA090558BF22EA0905CEF80450DEF80020DB0305
:2007E00042EA090558BF22EA0905CEF80050012550E700BF02B0BDE8F08F0000426902EAEF
:200800000103914341EA034181617047002A08BF090481617047000040F2B400C2F20000C7
:200820000068704740F2000040F2B401C2F20000C2F2000100780A681044086070470000BA
:2008400080B543F60040C4F20200016841F400710160016841F480610160016841F4807153
:200860000160032000F074F80F2000F005F800F027F8002080BD000070B540F20006C2F2FF
:20088000000640F208013278C2F200014FF47A730968B3FBF2F20446B1FBF2F1084600F06E
:2008A0002FFB0F2C4FF0010508D838B94FF0FF3021460022002500F01FF87460284670BD2B
:2008C00082B0002043F640010190C4F202014A6842F480424A604A6802F480420192019A16
:2008E0000090086840F080500860086800F080500090009802B0704710B54EF60C5CCEF29E
:20090000000CDCF80030C3F3022E8EF00704042C28BF0424BEF103034FF0FF3E0EFA04F4E8
:2009200038BF0023A14399400EFA03F39A43114300F00F0200F160430901043A03F5644335
:200940006244002848BF02F10C03197010BD00004EF60C51CEF200010A684FF6FF031A40F5
:2009600060F30A2242F0806040F0FD70086070472DE9F041002800F08B8043F60808C4F2C1
:2009800002080446D8F8F8030D4600F00700884207D288F8F853D8F8F80300F00700A842D4
:2009A00076D12068810717D5410705D5D8F8001041F4E051C8F80010010705D5D8F80010FA
:2009C00041F46041C8F80010D8F80010A26821F0F0011143C8F80010C0073FD1D8F8F803BF
:2009E00000F00700A84207D988F8F853D8F8F80300F00700A8424BD12068410707D5D8F827
:200A00000010E26821F4E0511143C8F80010000708D5D8F80000216920F4604040EAC10035
:200A2000C8F8000000F07CF8D8F8001041F25252C1F30311C0F60002515C40F2080220FA58
:200A400001F140F20400C2F200000068C2F200021160FFF711FF0020BDE8F0816068811E88
:200A6000022907D258F8081C89015CBF0120BDE8F08111E0012807D158F8081C89035CBF15
:200A80000120BDE8F08107E058F8081C890703D40120BDE8F08100BFD8F8001021F0030172
:200AA0000843C8F80000FFF7B7FE064641F28837D8F80000616800F00C00B0EB810F8DD025
:200AC000FFF7AAFE801BB842F2D90320BDE8F08140F2080043F60801C2F20000C4F20201F6
:200AE0000068096841F26252C1F38221C0F60002515CC8407047000040F2080043F608013F
:200B0000C2F20000C4F202010068096841F26252C1F34231C0F60002515CC840704700005D
:200B200010B543F60404C4F20204606800F00C0008280BD0042819BF42F20040C0F2F40006
:200B400047F64000C0F27D1010BD00BF206821682368490247F64001C0F27D1100F03F0277
:200B6000C3F388105CBF42F20041C0F2F401A1FB00010023FFF77CFB21680222C1F3014120
:200B800002EB4101B0FBF1F010BD00002DE9F04182B0002868D00446007843F60006C0072C
:200BA000C4F202060BD0B06800F00C00042840F09F803068800302D56068002854D020786F
:200BC00080071AD5B06810F00C0F09D0B06800F00C00082840F0A6807068400200F1A280CC
:200BE0003068800702D5E06801283DD13068216920F0F80040EAC10030602078000737D431
:200C0000207840074CD4A56955B3B06800F00C00082840F0BB80012D26D07068E16900F4D6
:200C200080028A4220D1216A00F03F028A421BD147F6C071626A0140B1EB821F14D1A16A59
:200C40004FF6FF73C903994300F44032A1F580318A4209D1E16A00F07060B0EB016F03D1F8
:200C6000002002B0BDE8F081012002B0BDE8F0816069002840F20000C4F2472076D00121FB
:200C8000C0F8801EFFF7C8FD054600BF706F8007B6D4FFF7C1FD401B0228F7D9DDE000BFC4
:200CA000306C10F080580AD100200190306C40F080503064306C00F080500190019847F245
:200CC0000007C4F200073868C00541D4386840F480703860FFF7A0FD054600BF3868C00578
:200CE00036D4FFF799FD401B0228F7D9B5E000BFB06800F00C00082803D1706840023FF54F
:200D000058AF6068B0F5803F07D0B0F5A02F40F08D80306840F480203060306840F48030A0
:200D200030608DE0E068002852D00020C4F2472001210160FFF770FD054600BF30688007D8
:200D40003FF554AFFFF768FD401B0228F6D984E0A068012805D005284ED1306F40F0040024
:200D60003067306F40F0010030674FE00021C0F8801EFFF751FD0546706F80077FF540AF77
:200D8000FFF74AFD401B0228F6D966E00027C4F2472700203866FFF73FFD022D05460BD1EB
:200DA000306880015ED5FFF737FD401B02284FF00300F5D955E700BF306880017FF550AFA1
:200DC000FFF72AFD401B02284FF00300F4D948E70020C4F2472000210160FFF71DFD054619
:200DE000306880077FF509AFFFF716FD401B02284FF00300F4D934E7316F002821F0010115
:200E00003167316F21F0040131674DD0FFF704FD054641F2883700BF306F800756D4FFF796
:200E2000FBFC401BB842F7D917E000BF3168002821F480313160316821F4802131604FD0C9
:200E4000FFF7EAFC054600BF306880033FF5B7AEFFF7E2FC401B6428F6D9032002B0BDE8F4
:200E6000F08100BF04F11C052FCD084340EA8210D9034FF6FF729143A1F5803140EA0560ED
:200E80000843706001203866FFF7C6FC044600BF306880013FF5E4AEFFF7BEFC001B0228E3
:200EA0004FF00300F4D9DCE6FFF7B6FC054641F2883700BF306F800708D5FFF7ADFC401BC0
:200EC000B8424FF00300F5D9CBE600BFB8F1000F7FF499AE306C20F08050306493E600BFDE
:200EE000FFF79AFC054600BF306880037FF567AEFFF792FC401B64284FF00300F4D9B0E6A8
:200F0000411E0020B0EB116F1CBF012070474EF21002CEF2000251604EF62351CEF2000146
:200F2000F0230B700721906011607047002804BF0120704710B5044690F83D0028B900204B
:200F400084F83C00204600F021F8242084F83D002068C16821F40051C160204600F0A6F940
:200F60002068016921F490410161416921F02A014161C16841F40051C160002020212064FA
:200F800084F83D1084F83E1010BD000080B586B0016844F20040C4F20000814202D006B0A6
:200FA00080BD00BF002143F630020191C4F20202136900F5E43043F400331361136903F487
:200FC00000330193019B0191136843F008031360126802F008020192019A60220192022213
:200FE000CDE90221032104910721059101A9FFF731FB06B080BD00002DE9F04381B004461E
:2010000090F83D0020280DD10F4600294FF0010000F0DD801646002A00F0D98094F83C0043
:20102000012803D1022001B0BDE8F083012084F83C000020206421201D4684F83D00FFF7F8
:20104000EBFBA684E684A1680646B1F5805F03D12069002800F01081B8460027002084F875
:201060003C00E18C2068002900F0908005F101090DE000BFB8F1000F28D018F8011B4160ED
:20108000E18C0139E184E18C002900F07F8001680906EFD4B9F1000F0AD0FDB1FFF7BCFB96
:2010A000801BA8421AD8206801680906F6D5E1E701680906DED4016809065CBF01685FEAB7
:2010C0000161D7D401680906F2D5D3E737F8021B4FF000086FF35F21D1E700BF206850E85E
:2010E000030F216820F4D07041E80302BAB3206850E8030F216820F4D07041E8030272B364
:20110000206850E8030F216820F4D07041E803022AB3206850E8030F216820F4D07041E83D
:201120000302002ADAD11AE0206850E8050F216820F0010041E80502DAB1206850E8050FDE
:20114000216820F0010041E8050292B1206850E8050F216820F0010041E805024AB1206861
:2011600050E8050F216820F0010041E80502002ADAD1202084F83D0084F83E00002084F835
:201180003C00032001B0BDE8F08300BF0168490619D4FDB1691C0DD10168490613D40168AA
:2011A00049065CBF01685FEA41610CD401684906F2D508E0FFF730FB801BA8420AD820681A
:2011C00000684006F6D5202084F83D00002001B0BDE8F083206850E8030F216820F4D07005
:2011E00041E80302E2B3206850E8030F216820F4D07041E803029AB3206850E8030F2168A7
:2012000020F4D07041E8030252B3206850E8030F216820F4D07041E80302002ADAD11FE096
:20122000206850E8050F216820F0010041E80502002A9ED0206850E8050F216820F001000A
:2012400041E80502002A3FF494AF206850E8050F216820F0010041E80502002A3FF489AF8B
:20126000206850E8050F216820F0010041E80502002AD5D17DE700BF4FF00008EEE60000C2
:20128000FEE70000FEE70000FEE700007047000070470000FFF7C6BA4EF68850CEF20000DF
:2012A000016841F4700101607047000010B504460068D4E902C22369016921F4405111431F
:2012C0000161626943EA0C01E3691143C268194349F20C639A431143C1604169A26921F4BB
:2012E000407141F20043114340F48062C4F201039A42416102D1FFF7FFFB01E0FFF7E8FBA8
:20130000E16963681922B1F5004FA0FB020123D15A00DB0FFEF7ACFF48F21F51C5F2EB11B5
:20132000A0FB01235A094FF69C73C0F6FF7303F1805302FB0300322303EBC000A0FB0101A8
:201340004FF4F87000EA111000EB0210C1F3421108442168886010BD9A009B0FFEF788FF89
:2013600048F21F51C5F2EB11A0FB01235A094FF69C73C0F6FF7302FB0300322303EB00101F
:20138000A0FB0101F02000EA511000EB0210C1F3431108442168886010BD0000FEE70000E1
:2013A00092B043F6300647F20005C4F20206C4F20005FFF745FA06AC201D2C21FFF756F810
:2013C00000270597CDE90377CDE901770097306940F080503061306900F0805000900098AA
:2013E0000097286840F480402860286800F4804000900098022006900120099010200A90A2
:2014000020460C97FFF7C2FB20B1EFF3108072B6FEE700BF0F20CDE9010701A80021CDE994
:2014200003770597FFF7A4FA20B1EFF3108072B6FEE700BF00270A970197306805F5D034FD
:2014400040F01000306030684FF4804100F010000190019801973068002240F008003060DC
:2014600030684FF4804600F00800019001982046FFF7CCF905F5CE352846802101224FF01A
:2014800080084FF00109FFF7C1F9CDE9066906AE20463146CDE90877FFF7DCF82846314631
:2014A000CDE90689CDE90877FFF7D4F840F2700044F20041C2F20000C4F2000108234FF4FE
:2014C000165280E88600C0E90377C0E90537C761FFF72CFD20B1EFF3108072B6FEE700BF58
:2014E00040F2700700250FF2400806AEC2F20007EAB230464146FEF733FF82B2384631467D
:201500004FF47A73FFF778FD4FF47A700135FFF78DF820464FF48041FFF770F94FF4967040
:20152000FFF784F8E4E700BF50726F7665726B61203D2025640A0000F1EE100A4FF6FF71A7
:20154000C0F2C03120EA010040F04070E1EE100A7047000000000000000001020304060746
:20156000080900000000010203040000901500080000002010000000C4010008A0150008E9
:2015800010000020A8060000E00100080000000001000000100000000024F400000000005B
:00000001FF
